:020000040000FA
:1000000000020010E1000000E9000000EB00000029
:10001000ED000000EF000000F10000000000000013
:10002000000000000000000000000000F3000000DD
:10003000F500000000000000F7000000F9000000DB
:10004000FB000000FB000000FB000000FB000000C4
:10005000FB000000FB000000FB000000FB000000B4
:10006000FB000000FB000000FB000000FB000000A4
:10007000FB000000FB000000FB000000FB00000094
:10008000FB000000FB000000FB000000FB00000084
:10009000FB000000FB000000FB000000FB00000074
:1000A000FB000000FB000000FB000000FB00000064
:1000B000FB000000FB000000FB000000FB00000054
:1000C000FB000000FB000000FB000000DFF80CD08C
:1000D00000F0DAF80048004779060000000200103E
:1000E0000648804706480047FEE7FEE7FEE7FEE7D2
:1000F000FEE7FEE7FEE7FEE7FEE7FEE7BD030000E2
:10010000CD0000002DE9FE4F81EA030404F0004415
:1001100021F0004100944FF0000B23F0004350EA1F
:1001200001045ED052EA03045BD0C3F30A54C1F366
:100130000A552C44A4F2F3340194A0FB0254C1F3F9
:10014000130141F48011C3F3130343F4801301FB43
:10015000024400FB034E840A970A44EA815447EAAA
:100160008357A4FB076802958D0A05FB07854FEAB4
:10017000932C04FB0C542705029D4FEA065847EACE
:100180001637B5EB08056EEB070C870E920E47EAA3
:10019000811742EA8312A7FB0201B6EB0B0164EB65
:1001A00000042B0D43EA0C335E1844EB1C50DA4676
:1001B0005146E7FB0201C5F313044FEA0B3343EA50
:1001C00014534FEA0432019C43EA0603A4F10C04E1
:1001D0000294009CCDE900B400F0A1F803B0BDE8A2
:1001E000F08F00200146F9E70EB5C10F80EAE070FC
:1001F0000844CA07002140F233438DE80E000A4646
:100200000B4600F08CF803B000BD70B5C1F30A5284
:1002100001F000450024C1F3130140F2FF3341F423
:1002200080119A4201DA002070BD40F233439A42B5
:10023000A2F2334203DC524200F015F800E0904095
:100240002C43F1D0404270BD202A04DB203A00FA52
:1002500002F1002070479140C2F1200320FA03F31D
:10026000194390407047202A04DB203A21FA02F01B
:100270000021704721FA02F3D040C2F120029140E0
:100280000843194670470000064C074D06E0E06839
:1002900040F0010394E8070098471034AC42F6D3CD
:1002A000FFF718FFE8020000F802000002E008C8AB
:1002B000121F08C1002AFAD170477047002001E0E0
:1002C00001C1121F002AFBD1704701B502E000985E
:1002D000401E009000980028F9D108BD00BF010021
:1002E000A0F10100FBD1704768070000000000107A
:1002F00000020000BC02000000000000FFFFFFFF42
:1003000010B5141E73F1000408DA401C41F100011D
:1003100092185B411A4301D120F0010010BD2DE974
:10032000F04D92469B4611B1B1FA81F202E0B0FA6B
:1003300080F220329046FFF787FF04460F4640EADE
:100340000A0041EA0B0153465A46084313D01146AE
:1003500053EA010019D0C8F140025046FFF783FF6D
:1003600005460E46504659464246FFF76DFF084384
:1003700005D0012004E020463946BDE8F08D00207C
:10038000054346EAE0762C4337430A986305E40ABE
:10039000A0EB08000022FD0A44EA47540A3002D5C7
:1003A00000200146E9E7010510196941DDE908452A
:1003B00000196941BDE8F04DA2E7000020204B493B
:1003C00008604B48D0F8A00100F0200030B100BF19
:1003D0004648006800F040000028F9D00320434957
:1003E0009C39086000204249C1F8A8013F490C31FE
:1003F000086001203D49943908603E483C498431F9
:100400000860AA203A498C31086055200860012014
:10041000374980310860AA2035498C310860552061
:100420003349C1F88C0000BF31488830006800F0C3
:1004300080600028F8D003202D4980310860AA2070
:100440002B49C1F88C00552029498C31086000BF28
:1004500027488830006800F04070B0F1407FF7D145
:1004600023202349A4310860AA202149C1F8AC0007
:1004700055201F49AC31086001201D49A03108609A
:10048000AA201B49AC31086055201949C1F8AC00BD
:1004900000BF1748A830006800F480600028F8D03A
:1004A00003201349A0310860AA201149C1F8AC000B
:1004B00055200F49AC31086000BF0D48A8300068D6
:1004C00000F44070B0F5407FF7D10B480849C431C3
:1004D000086000200649C1F8C8010846006820F4F9
:1004E000704040F48040086070470000A0C10F4099
:1004F00000C00F4063000500DE87280400B501201E
:1005000000F00EF840F2DC50FFF7DFFE022000F0B2
:1005100007F80248FFF7D9FE00BD000040420F0077
:1005200010B5044601201149C865204600F0FEF8C8
:1005300004200E4988659620FFF7C7FE04200B496A
:10054000C8659620FFF7C1FE2107080E00F0EEF8FF
:100550000420064988659620FFF7B7FE042003496A
:10056000C86540F2DC50FFF7B0FE10BD00C00920A6
:1005700070B506460C46601EC4B2012E06D0022E8F
:1005800006D0032E08D0042E0ED109E0E5B20DE00E
:1005900004F14000C5B209E004F11400C5B205E061
:1005A00004F15400C5B201E0E5B200BF00BF45F060
:1005B0008000FFF7B5FF40F2DC50FFF786FE70BD0C
:1005C00010B50446012011498865204600F0AEF8B8
:1005D00004200E4988659620FFF777FE04200B491A
:1005E000C8659620FFF771FE2107080E00F09EF8FF
:1005F0000420064988659620FFF767FE042003491A
:10060000C86540F2DC50FFF760FE10BD00C0092055
:100610002DE9FC4105464FF00008002427E00126A3
:10062000C4F1040703E006EB860046007F1E002F9E
:10063000F9DC95FBF6F0C0B20DF80400B54204DB1E
:10064000B8F1000F01D14FF001081DF8040000FBC4
:1006500016551DF804003030C0B20DF80400B8F192
:10066000000F03D01DF80400FFF7AAFF641C052C3F
:10067000D5DBBDE8FC8100000024601E244908642D
:100680004FF48040234948602348006840F480507C
:100690002149C439C1F8C4002048006840F0010075
:1006A0001E4908600846006840F4806008600846FB
:1006B000006840F40010086028E01848006840F026
:1006C00080701649086000BF1448406800F0004080
:1006D0000028F9D011480069C0F30B142046FFF739
:1006E00083FD05460E4A0F4BFFF70CFD0746FFF74B
:1006F0008CFD0446FFF702FF01210846FFF738FF93
:100700002046FFF785FF0848FFF7E8FDD5E7000022
:1007100000C0092000C00240C4C00F400040034098
:10072000CFF753E3A59BB43F002D3101F0210D4AD3
:10073000D16500F0800109B18021916500F0400190
:1007400011B14021074A916500F0200111B120212B
:10075000044A916500F0100111B11021014A916520
:080760007047000000C00920F1
:04000005000000E116
:00000001FF
