:020000040000FA
:10000000600200104D010000550100005701000082
:10001000590100005B0100005D01000000000000CC
:100020000000000000000000000000005F01000070
:100030006101000000000000630100006501000094
:100040006701000067010000670100006701000010
:100050006701000067010000670100006701000000
:1000600067010000670100006701000067010000F0
:1000700067010000670100006701000067010000E0
:1000800067010000670100006701000067010000D0
:1000900067010000670100006701000067010000C0
:1000A00067010000670100006701000067010000B0
:1000B00067010000670100006701000067010000A0
:1000C00067010000670100006701000000F002F80E
:1000D00000F02CF80AA090E8000C82448344AAF1B6
:1000E0000107DA4501D100F021F8AFF2090EBAE8B4
:1000F0000F0013F0010F18BFFB1A43F0010318475C
:10010000A8040000B80400000023002400250026F5
:10011000103A28BF78C1FBD8520728BF30C148BF6A
:100120000B6070471FB51FBD10B510BD00F02FF854
:100130001146FFF7F7FF00F0F5F900F04DF803B4B2
:10014000FFF7F2FF03BC00F051F8000009488047B8
:1001500009480047FEE7FEE7FEE7FEE7FEE7FEE7A9
:10016000FEE7FEE7FEE7FEE704480549034A054BC4
:100170007047000001030000CD0000006000001087
:1001800060020010600000107047704770477546AD
:1001900000F028F8AE4605006946534620F00700F7
:1001A000854618B020B5FFF7DFFFBDE820404FF0CF
:1001B00000064FF000074FF000084FF0000B21F051
:1001C0000701AC46ACE8C009ACE8C009ACE8C0091E
:1001D000ACE8C0098D4670470446AFF30080204666
:1001E000FFF7ADFF004870470000001001491820DC
:1001F000ABBEFEE726000200704701B502E00098A2
:10020000401E009000980028F9D108BD00B50120DB
:1002100000F00EF840F2DC50FFF7EFFF022000F094
:1002200007F80248FFF7E9FF00BD000040420F0059
:1002300010B5044601201149C865204600F096F922
:1002400004200E4988659620FFF7D7FF04200B494C
:10025000C8659620FFF7D1FF2107080E00F086F948
:100260000420064988659620FFF7C7FF042003494C
:10027000C86540F2DC50FFF7C0FF10BD00C0092088
:1002800070B506460C46601EC4B2012E06D0022E82
:1002900006D0032E08D0042E0ED109E0E5B20DE001
:1002A00004F14000C5B209E004F11400C5B205E054
:1002B00004F15400C5B201E0E5B200BF00BF45F053
:1002C0008000FFF7B5FF40F2DC50FFF796FF70BDEE
:1002D00030B505462C4604B930BD03E0207800F067
:1002E000F9F8641C20780028F8D100BFF4E700007A
:1002F000000000000000000000000000FFFFFFFF02
:1003000020204B4908604B48D0F8A00100F02000A5
:1003100030B100BF4648006800F040000028F9D026
:10032000032043499C39086000204249C1F8A801D4
:100330003F490C31086001203D49943908603E482E
:100340003C4984310860AA203A498C310860552024
:1003500008600120374980310860AA2035498C3176
:10036000086055203349C1F88C0000BF31488830FF
:10037000006800F080600028F8D003202D4980310B
:100380000860AA202B49C1F88C00552029498C31DE
:10039000086000BF27488830006800F04070B0F166
:1003A000407FF7D123202349A4310860AA202149A6
:1003B000C1F8AC0055201F49AC31086001201D492F
:1003C000A0310860AA201B49AC31086055201949AA
:1003D000C1F8AC0000BF1748A830006800F4806086
:1003E0000028F8D003201349A0310860AA20114941
:1003F000C1F8AC0055200F49AC31086000BF0D4872
:10040000A830006800F44070B0F5407FF7D10B4889
:100410000849C431086000200649C1F8C8010846EF
:10042000006820F4704040F480400860704700008D
:10043000A0C10F4000C00F4063000500DE87280404
:1004400000B5F720224908640220C86540F2DC505C
:10045000FFF7D3FE002000F089F8302000F086F886
:1004600004201B4988659620FFF7C7FE0420184921
:10047000C86540F2DC50FFF7C0FE302000F076F88F
:100480000420134988659620FFF7B7FE0420104921
:10049000C86540F2DC50FFF7B0FE202000F066F89F
:1004A00004200B4988659620FFF7A7FE0420084921
:1004B000C86540F2DC50FFF7A0FE2820FFF7B8FE29
:1004C0000C20FFF7B5FE40F2DC50FFF796FE00BDB2
:1004D00000C0092010B50446012011498865204656
:1004E00000F044F804200E4988659620FFF785FE49
:1004F00004200B49C8659620FFF77FFE2107080EF0
:1005000000F034F80420064988659620FFF775FE50
:1005100004200349C86540F2DC50FFF76EFE10BDB1
:1005200000C009204FF0FF300A490864FFF788FF38
:10053000FFF76CFE01210846FFF7A2FE06A0FFF7B9
:10054000C7FE01210220FFF79BFE04A0FFF7C0FEBB
:1005500000BFFEE700C0092041524D004D696372A3
:100560006F636F6E74726F6C6C657200F0210D4A70
:10057000D16500F0800109B18021916500F0400152
:1005800011B14021074A916500F0200111B12021ED
:10059000044A916500F0100111B11021014A9165E2
:1005A0007047000000C00920B805000000000010DE
:0805B0006002000008010000D8
:04000005000000CD2A
:00000001FF
