:020000040000FA
:10000000B0020010690100007101000073010000DE
:100010007501000077010000790100000000000078
:100020000000000000000000000000007B01000054
:100030007D010000000000007F0100008101000040
:1000400083010000830100008301000083010000A0
:100050008301000083010000830100008301000090
:100060008301000083010000830100008301000080
:100070008301000083010000830100008301000070
:10008000830100008D030000830100008301000054
:100090008301000083010000830100008301000050
:1000A0008301000083010000830100008301000040
:1000B0008301000083010000830100008301000030
:1000C00083010000830100008301000000F002F8BA
:1000D00000F03AF80AA090E8000C82448344AAF1A8
:1000E0000107DA4501D100F02FF8AFF2090EBAE8A6
:1000F0000F0013F0010F18BFFB1A43F0010318475C
:100100005807000078070000103A24BF78C878C16B
:10011000FAD8520724BF30C830C144BF04680C600D
:10012000704700000023002400250026103A28BF55
:1001300078C1FBD8520728BF30C148BF0B60704759
:100140001FB51FBD10B510BD00F061F81146FFF7D7
:10015000F7FF00F0FFFA00F07FF803B4FFF7F2FFBB
:1001600003BC00F083F800000948804709480047B5
:10017000FEE7FEE7FEE7FEE7FEE7FEE7FEE7FEE757
:10018000FEE7FEE704480549034A054B70470000B7
:10019000A9030000CD000000B0000010B002001064
:1001A000B000001010B5203AC0F00B80B1E8185034
:1001B000203AA0E81850B1E81850A0E81850BFF451
:1001C000F5AF5FEA027C24BFB1E81850A0E81850F0
:1001D00044BF18C918C0BDE810405FEA827C24BF44
:1001E00051F8043B40F8043B08BF7047D20728BFD2
:1001F00031F8023B48BF11F8012B28BF20F8023B21
:1002000048BF00F8012B704770477047704775462C
:1002100000F028F8AE4605006946534620F0070076
:10022000854618B020B5FFF7ADFFBDE820404FF080
:1002300000064FF000074FF000084FF0000B21F0D0
:100240000701AC46ACE8C009ACE8C009ACE8C0099D
:10025000ACE8C0098D4670470446AFF300802046E5
:10026000FFF77BFF0048704750000010014918203D
:10027000ABBEFEE7260002007047000010B588B054
:1002800004461348007800901148203890F8240064
:1002900001900F480830007802900D480C3000782B
:1002A00003900B4810300078069009482038808E63
:1002B0000790074818300078049005482038808F50
:1002C0000590202269462046FFF76CFF08B010BD5C
:1002D000204002400448007A40F0010002490872C0
:1002E000012008707047000000400240000000003C
:1002F000000000000000000000000000FFFFFFFF02
:1003000000200F4908600F48006840F400700D4954
:10031000C439C1F8C4000C48007800F0100038B1AE
:100320000948007840F0100007495C3981F85C000A
:10033000002005495C390874087308727047000092
:1003400000000010C4C00F405C4002400FB40E49D2
:10035000009808700C492039019881F824000A4956
:1003600008310298087008492039039881F82C0058
:10037000069881F8300007988886049881F838003C
:100380000598888704B070472040024004480078F0
:1003900040F00100024908700120024908607047DE
:1003A000004002400000001020204B4908604B48EC
:1003B000D0F8A00100F0200030B100BF464800682E
:1003C00000F040000028F9D0032043499C39086020
:1003D00000204249C1F8A8013F490C3108600120C2
:1003E0003D49943908603E483C4984310860AA2060
:1003F0003A498C3108605520086001203749803126
:100400000860AA2035498C31086055203349C1F86D
:100410008C0000BF31488830006800F08060002800
:10042000F8D003202D4980310860AA202B49C1F85B
:100430008C00552029498C31086000BF274888303E
:10044000006800F04070B0F1407FF7D123202349CD
:10045000A4310860AA202149C1F8AC0055201F49E9
:10046000AC31086001201D49A0310860AA201B4959
:10047000AC31086055201949C1F8AC0000BF1748DD
:10048000A830006800F480600028F8D003201349E9
:10049000A0310860AA201149C1F8AC0055200F49CD
:1004A000AC31086000BF0D48A830006800F440700F
:1004B000B0F5407FF7D10B480849C43108600020EF
:1004C0000649C1F8C8010846006820F4704040F4AD
:1004D0008040086070470000A0C10F4000C00F407E
:1004E00063000500DE87280401B502E00098401E85
:1004F000009000980028F9D108BD000000BF00213D
:100500000D4A126841F28833B2FBF3F20B4B1A60CA
:1005100000BF00E0491C094A12689142FAD3084A18
:100520001268521C064B1A60194609688142E6D3CC
:1005300000211A46116070470400001008000010E6
:100540000C00001000B5012000F00EF840F2DC5065
:10055000FFF7CAFF022000F007F80248FFF7C4FFC8
:1005600000BD000040420F0010B5044601201149B3
:10057000C865204600F052F904200E49886596208F
:10058000FFF7B2FF04200B49C8659620FFF7ACFFC8
:100590002107080E00F042F90420064988659620DC
:1005A000FFF7A2FF04200349C86540F2DC50FFF7C3
:1005B0009BFF10BD00C0092070B506460C46601EAA
:1005C000C4B2012E06D0022E06D0032E08D0042E6F
:1005D0000ED109E0E5B20DE004F14000C5B209E03A
:1005E00004F11400C5B205E004F15400C5B201E005
:1005F000E5B200BF00BF45F08000FFF7B5FF40F255
:10060000DC50FFF771FF70BD00B5F7202249086488
:100610000220C86540F2DC50FFF766FF002000F0C2
:10062000FDF8302000F0FAF804201B498865962078
:10063000FFF75AFF04201849C86540F2DC50FFF765
:1006400053FF302000F0EAF8042013498865962013
:10065000FFF74AFF04201049C86540F2DC50FFF75D
:1006600043FF202000F0DAF804200B49886596202B
:10067000FFF73AFF04200849C86540F2DC50FFF755
:1006800033FF2820FFF770FF0C20FFF76DFF40F2CB
:10069000DC50FFF729FF00BD00C0092010B504465B
:1006A000012011498865204600F0B8F804200E4961
:1006B00088659620FFF718FF04200B49C86596202F
:1006C000FFF712FF2107080E00F0A8F804200649E2
:1006D00088659620FFF708FF04200349C86540F2AB
:1006E000DC50FFF701FF10BD00C009202DE9FC41DF
:1006F00005464FF00008002427E00126C4F1040756
:1007000003E006EB860046007F1E002FF9DC95FB18
:10071000F6F0C0B20DF80400B54204DBB8F1000FEA
:1007200001D14FF001081DF8040000FB16551DF81B
:1007300004003030C0B20DF80400B8F1000F03D04F
:100740001DF80400FFF7AAFF641C052CD5DBBDE8EB
:10075000FC81000088B0FFF757FFFFF7F3FEFFF7BB
:10076000CFFD16202B4908601E20486009208860B4
:100770000F20C86000208861C8610820086140F22D
:10078000DF7048610B4610330FCB8DE80F00214816
:100790000FC8FFF7DBFDFFF79DFD39E06846FFF767
:1007A0006DFD202269461C48FFF7FCFC012108462C
:1007B000FFF702FF18494869FFF798FF2F20FFF75E
:1007C0006DFF15490869FFF791FF2F20FFF766FFBE
:1007D0001149C868FFF78AFF01210220FFF7ECFEEC
:1007E0000D498868FFF782FF3A20FFF757FF0A4953
:1007F0004868FFF77BFF3A20FFF750FF064908687B
:10080000FFF774FF4FF47A70FFF778FEFFF79AFE58
:10081000C4E700001000001030000010F0210D4A65
:10082000D16500F0800109B18021916500F040019F
:1008300011B14021074A916500F0200111B120213A
:10084000044A916500F0100111B11021014A91652F
:100850007047000000C00920780800000000001068
:1008600010000000080100008808000010000010BF
:10087000A00200002401000000000000001BB700DF
:08088000000000000000000070
:04000005000000CD2A
:00000001FF
