:020000040000FA
:10000000600200104D010000550100005701000082
:10001000590100005B0100005D01000000000000CC
:100020000000000000000000000000005F01000070
:100030006101000000000000630100006501000094
:100040006701000067010000670100006701000010
:100050006701000067010000670100006701000000
:1000600067010000670100006701000067010000F0
:1000700067010000670100006701000067010000E0
:1000800067010000670100006701000067010000D0
:1000900067010000670100006701000067010000C0
:1000A00067010000670100006701000067010000B0
:1000B00067010000670100006701000067010000A0
:1000C00067010000670100006701000000F002F80E
:1000D00000F02CF80AA090E8000C82448344AAF1B6
:1000E0000107DA4501D100F021F8AFF2090EBAE8B4
:1000F0000F0013F0010F18BFFB1A43F0010318475C
:10010000E8010000F801000000230024002500267B
:10011000103A28BF78C1FBD8520728BF30C148BF6A
:100120000B6070471FB51FBD10B510BD00F02FF854
:100130001146FFF7F7FF00F0DFF900F04DF803B4C8
:10014000FFF7F2FF03BC00F051F8000009488047B8
:1001500009480047FEE7FEE7FEE7FEE7FEE7FEE7A9
:10016000FEE7FEE7FEE7FEE704480549034A054BC4
:100170007047000001030000CD0000006000001087
:1001800060020010600000107047704770477546AD
:1001900000F028F8AE4605006946534620F00700F7
:1001A000854618B020B5FFF7DFFFBDE820404FF0CF
:1001B00000064FF000074FF000084FF0000B21F051
:1001C0000701AC46ACE8C009ACE8C009ACE8C0091E
:1001D000ACE8C0098D4670470446AFF30080204666
:1001E000FFF7ADFF004870470000001001491820DC
:1001F000ABBEFEE726000200704701B502E00098A2
:10020000401E009000980028F9D108BD00BF0100F1
:10021000A0F10100FBD1704700B5012000F00EF8FD
:1002200040F2DC50FFF7E9FF022000F007F8024837
:10023000FFF7E3FF00BD000040420F0010B5044689
:1002400001201149C865204600F0B4F904200E4988
:1002500088659620FFF7D1FF04200B49C8659620DA
:10026000FFF7CBFF2107080E00F0A4F90420064990
:1002700088659620FFF7C1FF04200349C86540F256
:10028000DC50FFF7BAFF10BD00C0092070B506466C
:100290000C46601EC4B2012E06D0022E06D0032EDC
:1002A00008D0042E0ED109E0E5B20DE004F14000C3
:1002B000C5B209E004F11400C5B205E004F1540030
:1002C000C5B201E0E5B200BF00BF45F08000FFF716
:1002D000B5FF40F2DC50FFF790FF70BD0808A0F5B5
:1002E00000114FEA31017047C809000000000010FA
:1002F000600200000801000000000000FFFFFFFF97
:1003000020204B4908604B48D0F8A00100F02000A5
:1003100030B100BF4648006800F040000028F9D026
:10032000032043499C39086000204249C1F8A801D4
:100330003F490C31086001203D49943908603E482E
:100340003C4984310860AA203A498C310860552024
:1003500008600120374980310860AA2035498C3176
:10036000086055203349C1F88C0000BF31488830FF
:10037000006800F080600028F8D003202D4980310B
:100380000860AA202B49C1F88C00552029498C31DE
:10039000086000BF27488830006800F04070B0F166
:1003A000407FF7D123202349A4310860AA202149A6
:1003B000C1F8AC0055201F49AC31086001201D492F
:1003C000A0310860AA201B49AC31086055201949AA
:1003D000C1F8AC0000BF1748A830006800F4806086
:1003E0000028F8D003201349A0310860AA20114941
:1003F000C1F8AC0055200F49AC31086000BF0D4872
:10040000A830006800F44070B0F5407FF7D10B4889
:100410000849C431086000200649C1F8C8010846EF
:10042000006820F4704040F480400860704700008D
:10043000A0C10F4000C00F4063000500DE87280404
:1004400010B50446012011498865204600F0B2F835
:1004500004200E4988659620FFF7CFFE04200B4943
:10046000C8659620FFF7C9FE2107080E00F0A2F824
:100470000420064988659620FFF7BFFE0420034943
:10048000C86540F2DC50FFF7B8FE10BD00C009207F
:100490002DE9FC4105464FF00008002427E0012625
:1004A000C4F1040703E006EB860046007F1E002F20
:1004B000F9DC95FBF6F0C0B20DF80400B54204DBA0
:1004C000B8F1000F01D14FF001081DF8040000FB46
:1004D00016551DF804003030C0B20DF80400B8F114
:1004E000000F03D01DF80400FFF7AAFF641C052CC1
:1004F000D5DBBDE8FC8100000024601E26490864AD
:100500004FF48040254948602548006840F48050F9
:100510002349C439C1F8C4002248006840F00100F2
:10052000204908600846006840F48060086008467A
:10053000006840F4001008602DE01A48006819496E
:1005400008600846006840F08070086000BF1548E9
:10055000406800F000400028F9D0124840684FF68B
:10056000F07100EA0104204600F0C9F905460E4A80
:100570000E4B00F03DF8074600F092F90446FFF7F5
:100580004BFE01210846FFF781FE2046FFF780FF62
:100590000748FFF73BFED0E700C0092000C002403B
:1005A000C4C00F400040034052B81E85EBD1284024
:1005B00080841E00F0210D4AD16500F0800109B150
:1005C0008021916500F0400111B14021074A9165F9
:1005D00000F0200111B12021044A916500F01001C2
:1005E00011B11021014A91657047000000C0092037
:1005F0002DE9C04130B4DFF8A0C23CEA111418BFA5
:100600003CEA131400F0EC8081EA03051CEA1114A3
:1006100044EAD57418BF1CEA131500F0C780A4EB98
:1006200005044FF0004545EAC12145EAC32341EAEC
:10063000505143EA525304F17F74994204F5003457
:100640004FEAC0204FEAC22208BF904200F09C80CF
:100650004FEA13650FF24016765D4FEA134506FB2D
:1006600005F7C7F1807706FB07F74FEAD737A7FBF7
:1006700003687642C8F58038A7FB06CE38BFA8F1DC
:10068000010807FB08E64FF0000EA6FB028CE6FB14
:1006900003CEDCF1000CCEF1004E38BFAEF1010EFE
:1006A000A6FB0C584FF000074FF00005E6FB0E8745
:1006B000A1FB08C6A0FB07CE16EB0E0645F1000510
:1006C000E1FB076515F1E04E7EBFA4F580345FEADB
:1006D00046066D4116F1800745F100054FEA1727E0
:1006E0004FEA066647EA0567A6F1DE46B6F1805F87
:1006F0004FEA15251FD9384624F0010C05EBC471CB
:10070000BCF1FE6F01EB0C1102D8F0BCBDE800811A
:1007100024425CBF01F5801E9EEAC47F02D4F0BC77
:10072000BDE80081244238D4F0BCA1F1C041BDE84D
:100730000041FFF7D3BD4FEAD22242EA43524FEACB
:10074000D323A7FB02864FEAD02040EA415007FBA3
:1007500003661EEA0E0F4FEAD12105FB026658BF61
:10076000A6EB0056B6EB00564FEA520E4EEAC37E99
:1007700018EB0E0E56EB530EBDD518EB02085E417A
:100780007F1C55F10005B6E74FF480154FF00007C8
:100790004FF000064FF00008ADE7F0BC4FF000004E
:1007A00001F1C04101F00041BDE8008111EA0C1FD8
:1007B0000CEA131500D00CE013EA0C1F00F02580A2
:1007C0004FF00000F0BC81EA030101F00041BDE8F8
:1007D0000081F0BCBDE8004181EA0301FFF77EBD66
:1007E000F0BCBDE8004170B500F0A0F8097EFC3E09
:1007F00000F007B881EA03014FF0000001F000416A
:10080000704781EA0301FFF769BDF0BCBDE8004114
:100810004FF0000021497047FFFDFBF9F7F5F4F2B6
:10082000F0EEEDEBE9E8E6E4E3E1E0DEDDDBDAD88B
:10083000D7D5D4D3D1D0CFCDCCCBCAC8C7C6C5C4E9
:10084000C2C1C0BFBEBDBCBBBAB9B8B7B6B5B4B300
:10085000B2B1B0AFAEADACABAAA9A8A8A7A6A5A4EB
:10086000A3A3A2A1A09F9F9E9D9C9C9B9A999998AF
:100870009797969595949393929191908F8F8E8E52
:100880008D8C8C8B8B8A89898888878786858584DF
:1008900084838382828181800000FF070000F87FCB
:1008A0004FEA41034FEA5353A3F58063D3F11E038C
:1008B000C8BFD3F1210C0CDD4FF0004242EAC12247
:1008C00042EA505232FA03FC8CEAE17CACEBE17074
:1008D0007047102BC4BF0020704703F5787CBCF133
:1008E000FF3F04D06FF0004282EA2100704770B5EC
:1008F00000F01CF84992248000207047F2E710F0C5
:10090000004248BF4042B0FA80F310FA03F10AD027
:10091000C3F11D0303F580634FEA415002EB03521C
:1009200002EBD12170474FF0000070470EF1020E2C
:100930002EF0030E5EF8046B364205D4012A43EB19
:10094000030515F5001F12D8012841EB010C1CF519
:10095000001F0CD80ED14FEAD17C15F5001F0CEB0F
:100960004C0C0CF1020C08BF4CEBD37C04E04FF0B4
:10097000080C01E04FEAD37C0CEB4C0526FA05F697
:1009800006F00706B6F1040C06D20EEB860CBDE8A5
:1009900070404CF0010C6047DFE80CF0090B0202DC
:1009A0004FF000414FF00000A1F5002170BD194645
:1009B0001046012851EB010418BFD4F5001484BF80
:0809C000002001F0004170BDB0
:040000050000014DA9
:00000001FF
