:020000040000FA
:10000000680200106D01000075010000770100001A
:10001000790100007B0100007D010000000000006C
:100020000000000000000000000000007F01000050
:100030008101000000000000830100008501000034
:100040008701000087010000870100008701000090
:100050008701000087010000870100008701000080
:100060008701000087010000870100008701000070
:100070008701000087010000870100008701000060
:100080008701000087010000870100008701000050
:100090008701000087010000870100008701000040
:1000A0008701000087010000870100008701000030
:1000B0008701000087010000870100008701000020
:1000C00087010000870100008701000000F002F8AE
:1000D00000F03AF80AA090E8000C82448344AAF1A8
:1000E0000107DA4501D100F02FF8AFF2090EBAE8A6
:1000F0000F0013F0010F18BFFB1A43F0010318475C
:10010000F410000014110000103A24BF78C878C120
:10011000FAD8520724BF30C830C144BF04680C600D
:10012000704700000023002400250026103A28BF55
:1001300078C1FBD8520728BF30C148BF0B60704759
:100140001FB51FBD10B510BD00F031F81146FFF707
:10015000F7FF00F063F800F04FF803B4FFF7F2FF89
:1001600003BC00F053F8000000BF70470948804707
:1001700009480047FEE7FEE7FEE7FEE7FEE7FEE789
:10018000FEE7FEE7FEE7FEE704480549034A054BA4
:100190007047000001030000CD000000680000105F
:1001A000680200106800001070477047704775467D
:1001B00000F028F8AE4605006946534620F00700D7
:1001C000854618B020B5FFF7DFFFBDE820404FF0AF
:1001D00000064FF000074FF000084FF0000B21F031
:1001E0000701AC46ACE8C009ACE8C009ACE8C009FE
:1001F000ACE8C0098D4670470446AFF30080204646
:10020000FFF7ABFF004870470800001001491820B5
:10021000ABBEFEE7260002007047000008B500F004
:10022000DFF942F2107000F02FF80721002000F0F3
:10023000C1F970206623642200210090084600F076
:10024000FFF86FF07F40012364224FF4A07100900B
:10025000F02000F0F5F800239622642102A000F0BF
:10026000BBFB00BFFEE70000202020202020202034
:10027000496E74657266616365204C41422020209E
:10028000202020202020000070B50546502000F0DE
:1002900023FC002000F082FC512000F01DFCEF2028
:1002A00000F07CFC202000F017FC002000F076FC21
:1002B000522000F011FC002000F070FC532000F0F0
:1002C0000BFC40F23F1000F069FC212000F004FC20
:1002D00040F23F1000F062FC222000F0FDFB002401
:1002E00003E0284600F05AFC641CB4F5963FF8DBA6
:1002F00070BD00000000000000000000FFFFFFFFD5
:1003000020204B4908604B48D0F8A00100F02000A5
:1003100030B100BF4648006800F040000028F9D026
:10032000032043499C39086000204249C1F8A801D4
:100330003F490C31086001203D49943908603E482E
:100340003C4984310860AA203A498C310860552024
:1003500008600120374980310860AA2035498C3176
:10036000086055203349C1F88C0000BF31488830FF
:10037000006800F080600028F8D003202D4980310B
:100380000860AA202B49C1F88C00552029498C31DE
:10039000086000BF27488830006800F04070B0F166
:1003A000407FF7D123202349A4310860AA202149A6
:1003B000C1F8AC0055201F49AC31086001201D492F
:1003C000A0310860AA201B49AC31086055201949AA
:1003D000C1F8AC0000BF1748A830006800F4806086
:1003E0000028F8D003201349A0310860AA20114941
:1003F000C1F8AC0055200F49AC31086000BF0D4872
:10040000A830006800F44070B0F5407FF7D10B4889
:100410000849C431086000200649C1F8C8010846EF
:10042000006820F4704040F480400860704700008D
:10043000A0C10F4000C00F4063000500DE87280404
:100440002DE9F84F06460F4691469B46DDF8288079
:1004500000244D46C9F1010A00BFBBF1000F20D0B6
:100460007B1932197919301BCDF8008000F056F84D
:100470007B1B3219791B301BCDF8008000F04EF841
:100480003B1972193919701BCDF8008000F046F83D
:100490003B1B7219391B701BCDF8008000F03EF831
:1004A00027E0E919A019424600F036FBE119A81926
:1004B000424600F031FBE919301B424600F02CFBAC
:1004C000E119701B424600F027FB391BA819424670
:1004D00000F022FB791BA019424600F01DFB791B9E
:1004E000301B424600F018FB391B701B424600F0DF
:1004F00013FBBAF1000F05DA2046641C4000C01C53
:10050000824407E02046641C29466D1E401A4000C4
:10051000401D8244AC42A0DDBDE8F88F2DE9FF5FAD
:1005200006460F4692460398C41BAAEB0605002C0C
:1005300003DA64424FF0FF3901E04FF00109002D6A
:1005400003DA6D424FF0FF3801E04FF0010864001C
:100550006D00394630460E9A00F0DEFAA54212DDF3
:10056000A4EB650B0CE0BBF1000F02DB4F44ABEBDF
:10057000050B4644A344394630460E9A00F0CCFAA7
:100580005645F0D113E0A5EB640B0CE0BBF1000F76
:1005900002DB4644ABEB040B4F44AB4439463046D8
:1005A0000E9A00F0B9FA03988742EFD100BFBDE878
:1005B000FF9F00001D2801DC132908DD1E2290FB8F
:1005C000F2F211441E2290FBF2F302FB1300024AE6
:1005D0001060024A11607047000000100400001013
:1005E00010B5C748006AC7490843C54908620846AC
:1005F000006840F0F86008604FF0C86088614FF014
:100600008070C8618000C861642000F0E1FA4FF09A
:100610008060BB498861642000F0DAFAE32000F0D2
:100620005BFA43F2080000F0B9FAE72000F054FA50
:10063000122000F0B3FAEF2000F04EFA41F2312020
:1006400000F0ACFA002000F047FA012000F0A6FA12
:10065000322000F0BDFA012000F03EFA4FF4807025
:1006600000F09CFA022000F037FA4FF4E06000F04E
:1006700095FA032000F030FA302000F08FFA0420C1
:1006800000F02AFA002000F089FA082000F024FA8D
:1006900040F2022000F082FA092000F01DFA00204A
:1006A00000F07CFA0A2000F017FA002000F076FA39
:1006B0000C2000F011FA002000F070FA0D2000F07C
:1006C0000BFA002000F06AFA0F2000F005FA002073
:1006D00000F064FA102000F0FFF9002000F05EFA4C
:1006E000112000F0F9F9072000F058FA122000F06C
:1006F000F3F9002000F052FA132000F0EDF9002089
:1007000000F04CFAC82000F063FA102000F0E4F981
:1007100041F2906000F042FA112000F0DDF940F261
:10072000272000F03BFA322000F052FA122000F0AD
:10073000D3F91A2000F032FA322000F049FA1320DF
:1007400000F0CAF94FF4C05000F028FA292000F058
:10075000C3F92A2000F022FA322000F039FA2020D2
:1007600000F0BAF9002000F019FA212000F0B4F9E5
:10077000002000F013FA302000F0AEF9072000F05E
:100780000DFA312000F0A8F940F2056000F006FAF9
:10079000322000F0A1F94FF4837000F0FFF935200A
:1007A00000F09AF940F2062000F0F8F9362000F047
:1007B00093F940F6080000F0F1F9372000F08CF9C9
:1007C000072000F0EBF9382000F086F940F2012014
:1007D00000F0E4F9392000F07FF9072000F0DEF99D
:1007E0003C2000F079F940F2026000F0D7F93D209A
:1007F00000F072F940F6080000F0D0F9502000F047
:100800006BF9002000F0CAF9512000F065F9EF20E3
:1008100000F0C4F9522000F05FF9002000F0BEF9AA
:10082000532000F059F940F23F1000F0B7F9602072
:1008300000F052F94FF4274000F0B0F9612000F0C9
:100840004BF9012000F0AAF96A2000F045F90020D8
:1008500000F0A4F9802000F03FF9002000F09EF99C
:10086000812000F039F9002000F098F9822000F092
:1008700033F9002000F092F9832000F02DF90020D8
:1008800000F08CF9842000F027F9002000F086F9B0
:10089000852000F021F9002000F080F9902000F080
:1008A0001BF9102000F07AF9922000F015F90020D1
:1008B00000F074F9932000F00FF9032000F06EF9B6
:1008C000952000F009F94FF4887000F067F997203F
:1008D00000F002F9002000F061F9982000F0FCF827
:1008E000002000F05BF9072000F0F6F840F233102A
:1008F00000F054F94FF6FF70FFF7C6FC10BD000082
:1009000000C009200080FF7F2DE9F05F06460F46FA
:1009100092469846002542E0A6F120002B4901EBC3
:10092000001010F80590002436E08020204100EAF5
:10093000090058B1264A126805EB0211254A1268CF
:1009400004EBC2003A4600F0E7F824E0B8F1000FEB
:100950000BD11F4A126805EB02111E4A126804EB04
:10096000C200524600F0D8F815E0194A126805EBAB
:100970000211184A126804EBC20000F040F88346E6
:10098000134A126805EB0211124A126804EBC20006
:100990005A4600F0C1F8641C082CC6DB6D1C102DF3
:1009A000BADB0C480068401C0A4908601D280ADDB3
:1009B0000020086006480068401C054908601328AC
:1009C00001DD00200860BDE8F09F0000E40B00009E
:1009D00004000010000000102DE9F04104460D460F
:1009E00016461F4606E014F8010B3B4632462946E0
:1009F000FFF78AFF20780028F5D1BDE8F08170B5B7
:100A000005460C46002D00DA0025002C00DA0024F3
:100A1000EF2D00DDEF25B4F5A07F01DB40F23F14A0
:100A2000502000F059F8284600F0B8F8512000F0A6
:100A300053F8284600F0B2F8202000F04DF8284680
:100A400000F0ACF840F23F10041B041B522000F0F1
:100A500043F8204600F0A2F8532000F03DF820466D
:100A600000F09CF8212000F037F8204600F096F8BE
:100A7000222000F031F800F003F800F001F870BD1A
:100A800000B51348006A13490840114908624FF045
:100A90000070C861401088618010C861322000F089
:100AA00091F80B48406B0B49C94300EA01034FF42E
:100AB000800007498861C00088614010C86108460D
:100AC000006A0449C943084301490862184600BD49
:100AD00000C00920FF7F008010B504464FF40000DD
:100AE0000B49C8610B48C863E0038863FFF73CFB10
:100AF0004FF480000649C861FFF736FB4FF48000D1
:100B0000034988610348C8634FF40000886110BD41
:100B100000C009200080FF7F70B505460C461646D0
:100B2000002D00DA0025002C00DA0024EF2D00DD76
:100B3000EF25B4F5A07F01DB40F23F145020FFF712
:100B4000CBFF284600F02AF85120FFF7C5FF2846C2
:100B500000F024F82020FFF7BFFF284600F01EF821
:100B600040F23F10041B041B5220FFF7B5FF204644
:100B700000F014F85320FFF7AFFF204600F00EF806
:100B80002120FFF7A9FF204600F008F82220FFF7F8
:100B9000A3FF304600F002F870BD000010B5044617
:100BA000E003074988634FF48000C861FFF7DCFA6F
:100BB0004FF4800002498861FFF7D6FA10BD0000AB
:100BC00000C0092000BF0100A0F10100FBD1704767
:100BD000014642F21072514300BF0A00A1F1010127
:100BE000FBD1704700000000000000000000000082
:100BF000000000000000183C3C3C181818001818B1
:100C00000000000000636363220000000000000099
:100C10000000000000000036367F3636367F36365C
:100C2000000000000C0C3E6361603E030343633E22
:100C30000C0C000000000000006163060C18336318
:100C4000000000000000001C36361C3B6E66663B50
:100C500000000000003030306000000000000000A4
:100C60000000000000000C18183030303018180C4C
:100C7000000000000000180C0C060606060C0C18FC
:100C8000000000000000000042663CFF3C6642009D
:100C90000000000000000000181818FF18181800C5
:100CA0000000000000000000000000000000181814
:100CB0001830000000000000000000FF00000000ED
:100CC00000000000000000000000000000001818F4
:100CD0000000000000000103070E1C3870E0C08017
:100CE0000000000000003E6363636B6B6363633E60
:100CF0000000000000000C1C3C0C0C0C0C0C0C3F09
:100D00000000000000003E6303060C183061637FA2
:100D10000000000000003E6303031E030303633E64
:100D2000000000000000060E1E3666667F06060FF5
:100D30000000000000007F6060607E030363733E7C
:100D40000000000000001C3060607E636363633E4F
:100D50000000000000007F630306060C0C18181842
:100D60000000000000003E6363633E636363633E14
:100D70000000000000003E636363633F0303063C22
:100D80000000000000000000001818000000181803
:100D900000000000000000000018180000001818F3
:100DA00018300000000000060C18306030180C06E7
:100DB000000000000000000000007E00007E000037
:100DC000000000000000006030180C060C183060B5
:100DD0000000000000003E6363060C0C0C000C0CCD
:100DE0000000000000003E63636F6B6B6E60603E4E
:100DF000000000000000081C366363637F636363C8
:100E00000000000000007E3333333E333333337E43
:100E10000000000000001E33616060606061331EEE
:100E20000000000000007C36333333333333367C2C
:100E30000000000000007F3331343C343031337F18
:100E40000000000000007F3331343C343030307813
:100E50000000000000001E336160606F6363371D97
:100E6000000000000000636363637F636363636388
:100E70000000000000003C18181818181818183C3A
:100E80000000000000000F06060606060666663C27
:100E9000000000000000733336363C3636333373BF
:100EA0000000000000007830303030303031337FC7
:100EB00000000000000063777F6B6363636363631C
:100EC0000000000000006363737B7F6F67636363F0
:100ED0000000000000001C36636363636363361C1C
:100EE0000000000000007E3333333E303030307875
:100EF0000000000000003E6363636363636B6F3E4A
:100F00000607000000007E3333333E36363333733A
:100F10000000000000003E6363301C060363633E74
:100F2000000000000000FFDB991818181818183C82
:100F30000000000000006363636363636363633EF8
:100F400000000000000063636363636363361C0892
:100F500000000000000063636363636B6B7F3636E1
:100F6000000000000000C3C3663C18183C66C3C301
:100F7000000000000000C3C3C3663C181818183CEA
:100F80000000000000007F6343060C183061637F9F
:100F90000000000000003C30303030303030303C59
:100FA00000000000000080C0E070381C0E07030144
:100FB0000000000000003C0C0C0C0C0C0C0C0C3C59
:100FC00000000000081C3663000000000000000064
:100FD0000000000000000000000000000000000011
:100FE000FF00000018180C000000000000000000C6
:100FF0000000000000000000003C46063E66663B24
:101000000000000000007030303C36333333336E64
:101010000000000000000000003E63606060633E6E
:101020000000000000000E06061E36666666663B7F
:101030000000000000000000003E63637E60633E2D
:101040000000000000001C3632307C303030307838
:101050000000000000000000003B666666663E0679
:10106000663C00000000703030363B33333333735E
:101070000000000000000C0C001C0C0C0C0C0C1EE2
:101080000000000000000606000E060606060666C2
:10109000663C000000007030303333363C3633732A
:1010A0000000000000001C0C0C0C0C0C0C0C0C1EA6
:1010B0000000000000000000006E7F6B6B6B6B6B2C
:1010C0000000000000000000006E33333333333380
:1010D0000000000000000000003E63636363633EA5
:1010E0000000000000000000006E333333333E3058
:1010F0003078000000000000003B666666663E0631
:10110000060F000000000000006E3B3330303078E6
:101110000000000000000000003E63380E03633E44
:101120000000000000000818187E181818181B0E80
:101130000000000000000000006666666666663B10
:10114000000000000000000000636336361C1C082D
:101150000000000000000000006363636B6B7F36DB
:1011600000000000000000000063361C1C1C3663F9
:1011700000000000000000000063636363633F033E
:10118000063C000000000000007F660C1830637F02
:101190000000000000000E18181870181818180E1B
:1011A0000000000000001818181818001818181867
:1011B000180000000000701818180E181818187081
:1011C0000000000000003B6E000000000000000076
:1011D000000000000070D8D870000000000000007F
:1011E00000000000000000000000000000000000FF
:1011F00000000000141200000000001008000000B1
:10120000080100001C12000008000010600200002D
:0C121000240100000000000000000000AD
:04000005000000CD2A
:00000001FF
