:020000040000FA
:10000000600200104D010000550100005701000082
:10001000590100005B0100005D01000000000000CC
:100020000000000000000000000000005F01000070
:100030006101000000000000630100006501000094
:100040006701000067010000670100006701000010
:100050006701000067010000670100006701000000
:1000600067010000670100006701000067010000F0
:1000700067010000670100006701000067010000E0
:1000800067010000670100006701000067010000D0
:1000900067010000670100006701000067010000C0
:1000A00067010000670100006701000067010000B0
:1000B00067010000670100006701000067010000A0
:1000C00067010000670100006701000000F002F80E
:1000D00000F02CF80AA090E8000C82448344AAF1B6
:1000E0000107DA4501D100F021F8AFF2090EBAE8B4
:1000F0000F0013F0010F18BFFB1A43F0010318475C
:10010000E4010000F4010000002300240025002683
:10011000103A28BF78C1FBD8520728BF30C148BF6A
:100120000B6070471FB51FBD10B510BD00F02FF854
:100130001146FFF7F7FF00F0DFF900F04DF803B4C8
:10014000FFF7F2FF03BC00F051F8000009488047B8
:1001500009480047FEE7FEE7FEE7FEE7FEE7FEE7A9
:10016000FEE7FEE7FEE7FEE704480549034A054BC4
:100170007047000001030000CD0000006000001087
:1001800060020010600000107047704770477546AD
:1001900000F028F8AE4605006946534620F00700F7
:1001A000854618B020B5FFF7DFFFBDE820404FF0CF
:1001B00000064FF000074FF000084FF0000B21F051
:1001C0000701AC46ACE8C009ACE8C009ACE8C0091E
:1001D000ACE8C0098D4670470446AFF30080204666
:1001E000FFF7ADFF004870470000001001491820DC
:1001F000ABBEFEE726000200704701B502E00098A2
:10020000401E009000980028F9D108BD002000BFD2
:1002100000E0401C4CF250318842FADB704700008D
:1002200000B5012000F00EF840F2DC50FFF7E5FFCA
:10023000022000F007F80248FFF7DFFF00BD0000D2
:1002400040420F0010B5044601201149C865204600
:1002500000F07AF904200E4988659620FFF7CDFF5B
:1002600004200B49C8659620FFF7C7FF2107080E39
:1002700000F06AF90420064988659620FFF7BDFF63
:1002800004200349C86540F2DC50FFF7B6FF10BDFB
:1002900000C0092070B506460C46601EC4B2012E8F
:1002A00006D0022E06D0032E08D0042E0ED109E06F
:1002B000E5B20DE004F14000C5B209E004F114001C
:1002C000C5B205E004F15400C5B201E0E5B200BFDB
:1002D00000BF45F08000FFF7B5FF40F2DC50FFF7AC
:1002E0008CFF70BD8405000000000010600200005B
:1002F000080100000000000000000000FFFFFFFFF9
:1003000020204B4908604B48D0F8A00100F02000A5
:1003100030B100BF4648006800F040000028F9D026
:10032000032043499C39086000204249C1F8A801D4
:100330003F490C31086001203D49943908603E482E
:100340003C4984310860AA203A498C310860552024
:1003500008600120374980310860AA2035498C3176
:10036000086055203349C1F88C0000BF31488830FF
:10037000006800F080600028F8D003202D4980310B
:100380000860AA202B49C1F88C00552029498C31DE
:10039000086000BF27488830006800F04070B0F166
:1003A000407FF7D123202349A4310860AA202149A6
:1003B000C1F8AC0055201F49AC31086001201D492F
:1003C000A0310860AA201B49AC31086055201949AA
:1003D000C1F8AC0000BF1748A830006800F4806086
:1003E0000028F8D003201349A0310860AA20114941
:1003F000C1F8AC0055200F49AC31086000BF0D4872
:10040000A830006800F44070B0F5407FF7D10B4889
:100410000849C431086000200649C1F8C8010846EF
:10042000006820F4704040F480400860704700008D
:10043000A0C10F4000C00F4063000500DE87280404
:1004400010B50446012011498865204600F07CF86B
:1004500004200E4988659620FFF7CFFE04200B4943
:10046000C8659620FFF7C9FE2107080E00F06CF85A
:100470000420064988659620FFF7BFFE0420034943
:10048000C86540F2DC50FFF7B8FE10BD00C009207F
:100490002DE9FC4105464FF00008002427E0012625
:1004A000C4F1040703E006EB860046007F1E002F20
:1004B000F9DC95FBF6F0C0B20DF80400B54204DBA0
:1004C000B8F1000F01D14FF001081DF8040000FB46
:1004D00016551DF804003030C0B20DF80400B8F114
:1004E000000F03D01DF80400FFF7AAFF641C052CC1
:1004F000D5DBBDE8FC810000012010490867002021
:10050000C86040F6FF70886102204860032048619F
:1005100030200B49C860FF200A49086401200749C0
:1005200048600021FFF7B6FEFFF77AFE05E0FFF70F
:100530006DFE02498868FFF7ABFFF8E700800040D6
:1005400000C0024000C00920F0210D4AD16500F032
:10055000800109B18021916500F0400111B1402175
:10056000074A916500F0200111B12021044A9165EC
:1005700000F0100111B11021014A9165704700008F
:0405800000C009208E
:04000005000000CD2A
:00000001FF
