:020000040000FA
:10000000700200106901000071010000730100001E
:100010007501000077010000790100000000000078
:100020000000000000000000000000007B01000054
:100030007D010000000000007F0100008101000040
:1000400083010000830100008301000083010000A0
:100050008301000083010000830100008301000090
:100060008301000083010000830100008301000080
:100070008301000083010000830100008301000070
:100080008301000083010000830100008301000060
:100090008301000083010000830100008301000050
:1000A0008301000083010000830100008301000040
:1000B0008301000083010000830100008301000030
:1000C00083010000830100008301000000F002F8BA
:1000D00000F03AF80AA090E8000C82448344AAF1A8
:1000E0000107DA4501D100F02FF8AFF2090EBAE8A6
:1000F0000F0013F0010F18BFFB1A43F0010318475C
:1001000084050000A4050000103A24BF78C878C117
:10011000FAD8520724BF30C830C144BF04680C600D
:10012000704700000023002400250026103A28BF55
:1001300078C1FBD8520728BF30C148BF0B60704759
:100140001FB51FBD10B510BD00F02FF81146FFF709
:10015000F7FF00F01BFA00F04DF803B4FFF7F2FFD1
:1001600003BC00F051F800000948804709480047E7
:10017000FEE7FEE7FEE7FEE7FEE7FEE7FEE7FEE757
:10018000FEE7FEE704480549034A054B70470000B7
:1001900001030000CD00000070000010700200108C
:1001A00070000010704770477047754600F028F8DF
:1001B000AE4605006946534620F00700854618B054
:1001C00020B5FFF7DFFFBDE820404FF000064FF0FD
:1001D00000074FF000084FF0000B21F00701AC467C
:1001E000ACE8C009ACE8C009ACE8C009ACE8C0099B
:1001F0008D4670470446AFF300802046FFF7ADFF01
:10020000004870470C00001001491820ABBEFEE703
:1002100026000200704701B502E00098401E0090E1
:1002200000980028F9D108BD00BF00210D4A1268CE
:1002300041F28833B2FBF3F20B4B1A6000BF00E0CF
:10024000491C094A12689142FAD3084A1268521CA2
:10025000064B1A60194609688142E6D300211A4606
:10026000116070470000001004000010080000102A
:1002700000B5012000F00EF840F2DC50FFF7CBFF94
:10028000022000F007F80248FFF7C5FF00BD00009C
:1002900040420F0010B5044601201149C8652046B0
:1002A00000F0D2F904200E4988659620FFF7B3FFCD
:1002B00004200B49C8659620FFF7ADFF2107080E03
:1002C00000F0C2F90420064988659620FFF7A3FFD5
:1002D00004200349C86540F2DC50FFF79CFF10BDC5
:1002E00000C0092000000000000000000000000025
:1002F000000000000000000000000000FFFFFFFF02
:1003000020204B4908604B48D0F8A00100F02000A5
:1003100030B100BF4648006800F040000028F9D026
:10032000032043499C39086000204249C1F8A801D4
:100330003F490C31086001203D49943908603E482E
:100340003C4984310860AA203A498C310860552024
:1003500008600120374980310860AA2035498C3176
:10036000086055203349C1F88C0000BF31488830FF
:10037000006800F080600028F8D003202D4980310B
:100380000860AA202B49C1F88C00552029498C31DE
:10039000086000BF27488830006800F04070B0F166
:1003A000407FF7D123202349A4310860AA202149A6
:1003B000C1F8AC0055201F49AC31086001201D492F
:1003C000A0310860AA201B49AC31086055201949AA
:1003D000C1F8AC0000BF1748A830006800F4806086
:1003E0000028F8D003201349A0310860AA20114941
:1003F000C1F8AC0055200F49AC31086000BF0D4872
:10040000A830006800F44070B0F5407FF7D10B4889
:100410000849C431086000200649C1F8C8010846EF
:10042000006820F4704040F480400860704700008D
:10043000A0C10F4000C00F4063000500DE87280404
:1004400000B5F720224908640220C86540F2DC505C
:10045000FFF7E1FE002000F0F7F8302000F0F4F89C
:1004600004201B4988659620FFF7D5FE0420184913
:10047000C86540F2DC50FFF7CEFE302000F0E4F813
:100480000420134988659620FFF7C5FE0420104913
:10049000C86540F2DC50FFF7BEFE202000F0D4F823
:1004A00004200B4988659620FFF7B5FE0420084913
:1004B000C86540F2DC50FFF7AEFE2820FFF7EAFEE9
:1004C0000C20FFF7E7FE40F2DC50FFF7A4FE00BD72
:1004D00000C0092010B50446012011498865204656
:1004E00000F0B2F804200E4988659620FFF793FECD
:1004F00004200B49C8659620FFF78DFE2107080EE2
:1005000000F0A2F80420064988659620FFF783FED4
:1005100004200349C86540F2DC50FFF77CFE10BDA3
:1005200000C009202DE9FC4105464FF000080024D9
:1005300027E00126C4F1040703E006EB860046002D
:100540007F1E002FF9DC95FBF6F0C0B20DF8040019
:10055000B54204DBB8F1000F01D14FF001081DF8DE
:10056000040000FB16551DF804003030C0B20DF831
:100570000400B8F1000F03D01DF80400FFF7AAFF34
:10058000641C052CD5DBBDE8FC81000000242A4852
:10059000006840F480702849C439C1F8C400274875
:1005A000006840F04040254908600846406840F037
:1005B0003C00486002202249C860202008600120D9
:1005C00020490860FFF73CFFFFF752FE33E00020B0
:1005D0001C49486101201A49886000BF18484068DA
:1005E00000F080000028F9D0A0201549886000BFE5
:1005F0001348406800F080000028F9D01048846853
:1006000000200F49886000BF0D48406800F080005E
:100610000028F9D024020A4880680443C4F30B0080
:10062000FFF780FF0120074988614FF47A70FFF7D8
:10063000FBFDFFF71DFECAE7C4C00F4000C002402B
:100640000000024000C00920F0210D4AD16500F0F1
:10065000800109B18021916500F0400111B1402174
:10066000074A916500F0200111B12021044A9165EB
:1006700000F0100111B11021014A9165704700008E
:1006800000C00920A4060000000000100C000000BB
:1006900008010000B00600000C0000106402000019
:1006A00024010000001BB700000000000000000053
:04000005000001698D
:00000001FF
