:020000040000FA
:10000000600200104D010000550100005701000082
:10001000590100005B0100005D01000000000000CC
:100020000000000000000000000000005F01000070
:100030006101000000000000630100006501000094
:100040006701000067010000670100006701000010
:100050006701000067010000670100006701000000
:1000600067010000670100006701000067010000F0
:1000700067010000670100006701000067010000E0
:1000800067010000670100006701000067010000D0
:1000900067010000670100006701000067010000C0
:1000A00067010000670100006701000067010000B0
:1000B00067010000670100006701000067010000A0
:1000C00067010000670100006701000000F002F80E
:1000D00000F02CF80AA090E8000C82448344AAF1B6
:1000E0000107DA4501D100F021F8AFF2090EBAE8B4
:1000F0000F0013F0010F18BFFB1A43F0010318475C
:1001000040030000500300000023002400250026C7
:10011000103A28BF78C1FBD8520728BF30C148BF6A
:100120000B6070471FB51FBD10B510BD00F02FF854
:100130001146FFF7F7FF00F0AFF800F04DF803B4F9
:10014000FFF7F2FF03BC00F051F8000009488047B8
:1001500009480047FEE7FEE7FEE7FEE7FEE7FEE7A9
:10016000FEE7FEE7FEE7FEE704480549034A054BC4
:100170007047000001030000CD0000006000001087
:1001800060020010600000107047704770477546AD
:1001900000F028F8AE4605006946534620F00700F7
:1001A000854618B020B5FFF7DFFFBDE820404FF0CF
:1001B00000064FF000074FF000084FF0000B21F051
:1001C0000701AC46ACE8C009ACE8C009ACE8C0091E
:1001D000ACE8C0098D4670470446AFF30080204666
:1001E000FFF7ADFF004870470000001001491820DC
:1001F000ABBEFEE7260002007047000000BF0448C7
:10020000007D00F001000028F9D001480078704717
:1002100000C000401149096841F010010F4A116007
:100220001146096841F04001116083210C4A1173A5
:100230000D200146C21700EB12621212084B1A7110
:10024000C21700EB12621212A0EB02221A700321F5
:100250001A461173062111727047000000C0024057
:1002600000C00040014600BF0448007D00F02000AF
:100270000028F9D0C8B2014A1070704700C0004091
:1002800000B5034603E013F8010BFFF7EBFF187806
:100290000028F8D100BD000000F032F8FFF7BAFFE7
:1002A00008A0FFF7EDFF0BE00BA0FFF7E9FFFFF75A
:1002B000A5FF0446E0B2FFF7D5FF0CA0FFF7E0FF73
:1002C000F2E700000D0A4D794E616D652046616DC3
:1002D000696C790D0A0A0000796F75722063686194
:1002E0007261637465723D20000000000D0A000019
:1002F000000000000000000000000000FFFFFFFF02
:1003000020204B4908604B48D0F8A00100F02000A5
:1003100030B100BF4648006800F040000028F9D026
:10032000032043499C39086000204249C1F8A801D4
:100330003F490C31086001203D49943908603E482E
:100340003C4984310860AA203A498C310860552024
:1003500008600120374980310860AA2035498C3176
:10036000086055203349C1F88C0000BF31488830FF
:10037000006800F080600028F8D003202D4980310B
:100380000860AA202B49C1F88C00552029498C31DE
:10039000086000BF27488830006800F04070B0F166
:1003A000407FF7D123202349A4310860AA202149A6
:1003B000C1F8AC0055201F49AC31086001201D492F
:1003C000A0310860AA201B49AC31086055201949AA
:1003D000C1F8AC0000BF1748A830006800F4806086
:1003E0000028F8D003201349A0310860AA20114941
:1003F000C1F8AC0055200F49AC31086000BF0D4872
:10040000A830006800F44070B0F5407FF7D10B4889
:100410000849C431086000200649C1F8C8010846EF
:10042000006820F4704040F480400860704700008D
:10043000A0C10F4000C00F4063000500DE87280404
:1004400050040000000000106002000008010000DD
:040000050000014DA9
:00000001FF
