:020000040000FA
:100000006802001069010000710100007301000026
:100010007501000077010000790100000000000078
:100020000000000000000000000000007B01000054
:100030007D010000000000007F0100008101000040
:1000400083010000830100008301000083010000A0
:100050008301000083010000830100008301000090
:100060008301000083010000830100008301000080
:100070008301000083010000830100008301000070
:100080008301000083010000830100008301000060
:100090008301000083010000830100008301000050
:1000A0008301000083010000830100008301000040
:1000B0008301000083010000830100008301000030
:1000C00083010000830100008301000000F002F8BA
:1000D00000F03AF80AA090E8000C82448344AAF1A8
:1000E0000107DA4501D100F02FF8AFF2090EBAE8A6
:1000F0000F0013F0010F18BFFB1A43F0010318475C
:10010000CC070000EC070000103A24BF78C878C183
:10011000FAD8520724BF30C830C144BF04680C600D
:10012000704700000023002400250026103A28BF55
:1001300078C1FBD8520728BF30C148BF0B60704759
:100140001FB51FBD10B510BD00F02FF81146FFF709
:10015000F7FF00F093FB00F04DF803B4FFF7F2FF58
:1001600003BC00F051F800000948804709480047E7
:10017000FEE7FEE7FEE7FEE7FEE7FEE7FEE7FEE757
:10018000FEE7FEE704480549034A054B70470000B7
:1001900029070000CD000000680000106802001070
:1001A00068000010704770477047754600F028F8E7
:1001B000AE4605006946534620F00700854618B054
:1001C00020B5FFF7DFFFBDE820404FF000064FF0FD
:1001D00000074FF000084FF0000B21F00701AC467C
:1001E000ACE8C009ACE8C009ACE8C009ACE8C0099B
:1001F0008D4670470446AFF300802046FFF7ADFF01
:10020000004870470800001001491820ABBEFEE707
:100210002600020070472DE9F04F06460F46904633
:10022000444600254FEA4800C0F101094FF0010B98
:10023000AA4644E07A19D1B23219D0B2012200F0B4
:10024000D4F97A19D1B2321BD0B2012200F0CDF923
:100250007A1BD1B2321BD0B2012200F0C6F97A1B50
:10026000D1B23219D0B2012200F0BFF93A19D1B29D
:100270007219D0B2012200F0B8F93A19D1B2721B4A
:10028000D0B2012200F0B1F93A1BD1B2721BD0B248
:10029000012200F0AAF93A1BD1B27219D0B20122A0
:1002A00000F0A3F96D1CDA440BF1020B022000FBF5
:1002B0000A90002803DD641ECA4409F10209AC4219
:1002C000B8DABDE8F08F30B500240EE021460020FA
:1002D00000F042F8002504E0002000F0E5F9681C79
:1002E000C5B2802DF8DB601CC4B2082CEEDB30BD3B
:1002F000000000000000000000000000FFFFFFFF02
:10030000002001E0411CC8B20A28FBDB7047000056
:1003100010B1012809D104E04FF48071044A9161C1
:1003200003E08021024A916100BF00BF70470000D6
:1003300000C0092010B1012809D104E04FF48071F8
:10034000044AD16103E08021024AD16100BF00BFAD
:100350007047000000C009202DE9F04104460E4618
:10036000194804701948067000270EE039464020ED
:1003700000F070F946F0B800394600F06BF93946E4
:10038000C02000F067F9781CC7B2022FEEDB2546CB
:10039000E21704EB9262C2F38711A046E21704EB66
:1003A00092629211A4EB8212D2B242F0400000F0AD
:1003B00051F9E21704EB9262C2F3871146F0B800DC
:1003C00000F048F9BDE8F0810000001001000010C5
:1003D0000548006840F4F8700349086008468069E1
:1003E00040F4C0708861704700C0092010B5FFF765
:1003F000EFFF002405E021463F2000F02BF9601CB0
:10040000C4B2032CF7DB10BD2DE9FF4F84B080464A
:1004100089460698A0EB08040798A0EB0905600040
:1004200001906800009046464F46012003900290DC
:10043000002C05DA801E039064420198404201902E
:10044000002D06DA4FF0FF3002906D4200984042D6
:10045000009009F0FF0108F0FF00012200F0C5F84C
:100460000CB9002D2ED0A54216DC4FF0000A00BFBB
:100470000398064400988244A24504DD029807448C
:100480000198AAEB000AF9B2F0B2012200F0ADF82F
:1004900006988642ECD115E04FF0000B00BF0298A1
:1004A000074401988344AB4504DD03980644009853
:1004B000ABEB000BF9B2F0B2012200F096F807980E
:1004C0008742ECD108B0BDE8F08F000030B500BF26
:1004D0001A490D78E91705EB9161881100F032F89F
:1004E00000F080000028F3D11548006C20F0FF00D8
:1004F000134908643020886110490B78D91703EB41
:1005000091618811FFF716FF40200D498861FFF7C0
:10051000F7FE0B48406DC4B240200949C861074945
:100520000B78D91703EB91618811FFF7F1FE0348AF
:100530000078401C01490870204630BD00000010C2
:1005400000C0092010B503460E48006C20F0FF00E3
:100550000C490864202088611020C8611846FFF704
:10056000E9FE402007498861FFF7CAFE0548406D53
:10057000C4B240200349C8611846FFF7C9FE2046AF
:1005800010BD000000C009202DE9F04105460E46CF
:100590001746984600240FE03019C1B200222846C1
:1005A00000F023F83219D1B2EA19521ED0B200225B
:1005B00000F01BF8601CC4B24445EDDB002410E0E1
:1005C0002919C8B20022314600F00FF806EB0802E4
:1005D000521ED1B22A19D0B2002200F006F8601CD7
:1005E000C4B2BC42ECDBBDE8F0812DE9F041074626
:1005F0000C4690462646E01704EB5070C0F3C70146
:100600003846FFF7A9FEFFF761FF05462646E017CB
:1006100004EB5070C0F3C7013846FFF79DFEFFF7AB
:1006200055FF0546E01704EB5070C0F3C70138468C
:10063000FFF792FE2046E11704EB5171C910A4EBBD
:10064000C102012191402943CDB2284600F02CF887
:10065000BDE8F08130B504460D4600BF2846FFF7DF
:1006600071FF00F080000028F8D10E48006C40F0C7
:10067000FF000C4908643020C8612846FFF75AFE85
:100680000848846584F0FF04C465402005498861FA
:10069000FFF736FE40200349C8612846FFF738FEC1
:1006A00030BD000000C0092030B5044600BF1C4921
:1006B0000D78E91705EB91618811FFF743FF00F012
:1006C00080000028F3D11748006C40F0FF00154966
:1006D00008642020C861102088610846846584F081
:1006E000FF04C4650E490B78D91703EB916188119B
:1006F000FFF720FE40200B498861FFF701FE4020F4
:100700000849C86106490B78D91703EB9161881134
:10071000FFF7FEFD02480078401C0149087030BD1B
:100720000000001000C0092020204B4908604B4801
:10073000D0F8A00100F0200030B100BF46480068AA
:1007400000F040000028F9D0032043499C3908609C
:1007500000204249C1F8A8013F490C31086001203E
:100760003D49943908603E483C4984310860AA20DC
:100770003A498C31086055200860012037498031A2
:100780000860AA2035498C31086055203349C1F8EA
:100790008C0000BF31488830006800F0806000287D
:1007A000F8D003202D4980310860AA202B49C1F8D8
:1007B0008C00552029498C31086000BF27488830BB
:1007C000006800F04070B0F1407FF7D1232023494A
:1007D000A4310860AA202149C1F8AC0055201F4966
:1007E000AC31086001201D49A0310860AA201B49D6
:1007F000AC31086055201949C1F8AC0000BF17485A
:10080000A830006800F480600028F8D00320134965
:10081000A0310860AA201149C1F8AC0055200F4949
:10082000AC31086000BF0D48A830006800F440708B
:10083000B0F5407FF7D10B480849C431086000206B
:100840000649C1F8C8010846006820F4704040F429
:100850008040086070470000A0C10F4000C00F40FA
:1008600063000500DE872804034800BF0100A0F1F3
:100870000100FBD17047000040420F00FFF7B6FDBA
:10088000FFF721FD1E233C2214213220FFF7BCFD7F
:100890000F231A4619460A20FFF776FE1422192163
:1008A0000846FFF7B8FC0EE0FFF70DFD064A117889
:1008B00010781422FFF7AFFC03480068401C02497F
:1008C0000860FFF7D1FFEFE704000010EC0800001C
:1008D000000000100800000008010000F4080000FB
:1008E0000800001060020000240100000000000069
:0408F0000000000004
:04000005000000CD2A
:00000001FF
