:020000040000FA
:1000000098020010690100007101000073010000F6
:100010007501000077010000790100000000000078
:100020000000000000000000000000007B01000054
:100030007D010000000000007F0100008101000040
:1000400083010000830100008301000083010000A0
:100050008301000083010000830100008301000090
:100060008301000083010000010300008301000000
:100070008301000083010000830100008301000070
:100080008301000083010000830100008301000060
:100090008301000083010000830100008301000050
:1000A0008301000083010000830100008301000040
:1000B0008301000083010000830100008301000030
:1000C00083010000830100008301000000F002F8BA
:1000D00000F03AF80AA090E8000C82448344AAF1A8
:1000E0000107DA4501D100F02FF8AFF2090EBAE8A6
:1000F0000F0013F0010F18BFFB1A43F0010318475C
:10010000A0010000C0010000103A24BF78C878C1E7
:10011000FAD8520724BF30C830C144BF04680C600D
:10012000704700000023002400250026103A28BF55
:1001300078C1FBD8520728BF30C148BF0B60704759
:100140001FB51FBD10B510BD00F02FF81146FFF709
:10015000F7FF00F04FFB00F04DF803B4FFF7F2FF9C
:1001600003BC00F051F800000948804709480047E7
:10017000FEE7FEE7FEE7FEE7FEE7FEE7FEE7FEE757
:10018000FEE7FEE704480549034A054B70470000B7
:10019000B5060000CD000000980000109802001085
:1001A00098000010704770477047754600F028F8B7
:1001B000AE4605006946534620F00700854618B054
:1001C00020B5FFF7DFFFBDE820404FF000064FF0FD
:1001D00000074FF000084FF0000B21F00701AC467C
:1001E000ACE8C009ACE8C009ACE8C009ACE8C0099B
:1001F0008D4670470446AFF300802046FFF7ADFF01
:10020000004870473800001001491820ABBEFEE7D7
:1002100026000200704710B500210BE0002205E027
:10022000002300E05B1C642BFCD3521CB2F57A7FE8
:10023000F6D3491C8142F1D310BD00000146154898
:10024000006840F40020134AC43AC2F8C4001248BF
:10025000406800F07070104A50601046406840F0EE
:10026000A070506080200D4A50611061022901D1B8
:10027000A020D0600A200122824043099B0003F1A4
:10028000E023C3F8002100BF4020044A1060012091
:1002900070470000C4C00F4000C0024000C00140D1
:1002A0009008000000000010180000000801000085
:1002B000A8080000180000108002000024010000BF
:1002C000000000000000000000000000000000002E
:1002D000000000000000000000000000000000001E
:1002E000000000000000000000000000000000000E
:1002F000000000000000000000000000FFFFFFFF02
:1003000010B58048406800F0F80404F007000028A9
:1003100070D1E0100C286DD2DFE800F0F106192052
:10032000B721B8B9A8BAC1DE77480078012806D14C
:100330007648007800F0FE007249886003E0734858
:1003400000787049886028206E498861D8E06F483D
:1003500000786C49886028208861D1E000BF6A4835
:10036000007800BB6A480068A8B16A480068007855
:100370006449886067480068401C66490860282016
:100380006049886162480068401E61490860012038
:10039000FFF741FF07E010205A49086028208861D4
:1003A00001205D4908705848007801282FD15B482A
:1003B000007802280DD15A480068C0F3072051493F
:1003C00088602820886155480078401E534908708D
:1003D00096E05248007801280DD151480068C0B21B
:1003E00048498860282088614C480078401E4B4965
:1003F000087085E083E04948007840B90820414909
:1004000088612020086000203F49087078E03E485D
:100410000078022829D141480078002825DD3F488E
:10042000007802280DD13E480068C0F30720354906
:1004300088602820886139480078401E3749087054
:100440005EE03648007801280FD135480068C0B218
:100450002C4988602820886130480078401E2F4948
:1004600008700020284908704AE049E028480068E0
:10047000012803D804202349886102E0042021498F
:10048000086028201F4988613AE000BF00BF00BF14
:1004900028201C498861FF201F49087030E0194856
:1004A00080681C49096808701A480068401C19498E
:1004B000086017480068401E154908600846006833
:1004C000012803D12C200F49886104E004200D4944
:1004D00008602820886113E00A4880680D4909688F
:1004E00008700C480068401C0A4908601020054943
:1004F00008602820886101200749087000E000BFDB
:1005000000BF10BD00C00140150000100000001029
:10051000100000100C000010140000100800001063
:10052000040000102DE9F04105460E4614461F4612
:10053000DDF81880B8F1000F45D0012E07D1681CF6
:100540002349087023480460012023490870022EC3
:1005500007D1681C1E4908701E48046002201E490D
:100560000870032E0CD10E2000EAD4102844401C41
:1005700017490870E0B21749086001201649087051
:10058000164807601648C0F8008001201549087019
:100590000020154908702C201449886160200860EB
:1005A00000BF114800780028FBD00F48007828B120
:1005B0001420FFF730FE0120BDE8F0811420FFF782
:1005C0002AFE0020F8E71420FFF725FE0020F3E7BD
:1005D0000000001004000010080000100C000010C3
:1005E00010000010150000101400001000C00140A1
:1005F0002DE9F04105460E4614461F46DDF81880E9
:10060000B8F1000F41D0012E06D1224805702248D2
:100610000460012021490870022E06D11D48057092
:100620001D48046002201D490870032E0AD10E20C7
:1006300000EAD410284417490870174804600120C4
:1006400016490870164807601648C0F80080022056
:10065000154908700020154908702C20144988613C
:100660006020086000BF114800780028FBD00F48C8
:10067000007828B11420FFF7CEFD0120BDE8F081FD
:100680001420FFF7C8FD0020F8E71420FFF7C3FD92
:100690000020F3E700000010040000100800001024
:1006A0000C000010100000101500001014000010C5
:1006B00000C0014020204B4908604B48D0F8A00101
:1006C00000F0200030B100BF4648006800F0400054
:1006D0000028F9D0032043499C3908600020424992
:1006E000C1F8A8013F490C31086001203D49943907
:1006F00008603E483C4984310860AA203A498C3160
:100700000860552008600120374980310860AA2020
:1007100035498C31086055203349C1F88C0000BF41
:1007200031488830006800F080600028F8D003204D
:100730002D4980310860AA202B49C1F88C00552032
:1007400029498C31086000BF27488830006800F0D4
:100750004070B0F1407FF7D123202349A4310860D5
:10076000AA202149C1F8AC0055201F49AC310860CE
:1007700001201D49A0310860AA201B49AC31086046
:1007800055201949C1F8AC0000BF1748A8300068CF
:1007900000F480600028F8D003201349A0310860DD
:1007A000AA201149C1F8AC0055200F49AC310860AE
:1007B00000BF0D48A830006800F44070B0F5407FDD
:1007C000F7D10B480849C431086000200649C1F838
:1007D000C8010846006820F4704040F4804008607A
:1007E00070470000A0C10F4000C00F40630005002B
:1007F000DE87280408B5FFF75DFFFF202249086463
:100800000846006840F07E7008604FF07E70886196
:100810000120FFF713FD08B900BFFEE7002403E045
:10082000601C1A490855641C082CF9D30820174B82
:10083000002201210090A020FFF7DAFE3220FFF70E
:10084000EAFC002403E0002010490855641C082C31
:10085000F9D308200D4B002201210090A020FFF7C2
:1008600061FE3220FFF7D7FC0CE0002408E00748C7
:10087000005D054948654FF49670FFF7CCFC641C99
:10088000082CF4D3F1E7000000C009201800001084
:100890000000000000000000000000000000000058
:0808A000000000000000000050
:04000005000001698D
:00000001FF
