:020000040000FA
:100000007802001069010000710100007301000016
:100010007501000077010000790100000000000078
:100020000000000000000000000000007B01000054
:100030007D010000000000007F0100008101000040
:1000400083010000830100008301000083010000A0
:100050008301000083010000830100008301000090
:100060008301000083010000830100008301000080
:100070008301000083010000830100008301000070
:100080008301000083010000830100008301000060
:100090008301000083010000830100008301000050
:1000A0008301000083010000830100008301000040
:1000B0008301000083010000830100008301000030
:1000C00083010000830100008301000000F002F8BA
:1000D00000F03AF80AA090E8000C82448344AAF1A8
:1000E0000107DA4501D100F02FF8AFF2090EBAE8A6
:1000F0000F0013F0010F18BFFB1A43F0010318475C
:10010000DC010000FC010000103A24BF78C878C16F
:10011000FAD8520724BF30C830C144BF04680C600D
:10012000704700000023002400250026103A28BF55
:1001300078C1FBD8520728BF30C148BF0B60704759
:100140001FB51FBD10B510BD00F02FF81146FFF709
:10015000F7FF00F06FF800F04DF803B4FFF7F2FF7F
:1001600003BC00F051F800000948804709480047E7
:10017000FEE7FEE7FEE7FEE7FEE7FEE7FEE7FEE757
:10018000FEE7FEE704480549034A054B70470000B7
:1001900001030000CD00000078000010780200107C
:1001A00078000010704770477047754600F028F8D7
:1001B000AE4605006946534620F00700854618B054
:1001C00020B5FFF7DFFFBDE820404FF000064FF0FD
:1001D00000074FF000084FF0000B21F00701AC467C
:1001E000ACE8C009ACE8C009ACE8C009ACE8C0099B
:1001F0008D4670470446AFF300802046FFF7ADFF01
:10020000004870471800001001491820ABBEFEE7F7
:100210002600020070470146002006E0002000E0B2
:10022000401C41F288329042FAD30A00A1F1010148
:10023000F4D170474FF0FF3023490860086441E073
:10024000FA20FFF7E8FF00202049086036E0002090
:100250001F49086029E000201E4908601CE00120B9
:10026000194948611C481A490968405C16494865A3
:100270000A20FFF7D0FF02201349486116481349AE
:100280000968405C104948650A20FFF7C4FF11481F
:100290000068401C0F4908600E4800686428DEDDD5
:1002A0000B480068401C0A49086009480068092892
:1002B000D1DD06480068401C044908600348006816
:1002C0000928C4DDBCE7000000C009200C000010B4
:1002D0001000001014000010000000104004000086
:1002E0000000001018000000080100005804000081
:1002F000180000106002000024010000FFFFFFFF53
:1003000020204B4908604B48D0F8A00100F02000A5
:1003100030B100BF4648006800F040000028F9D026
:10032000032043499C39086000204249C1F8A801D4
:100330003F490C31086001203D49943908603E482E
:100340003C4984310860AA203A498C310860552024
:1003500008600120374980310860AA2035498C3176
:10036000086055203349C1F88C0000BF31488830FF
:10037000006800F080600028F8D003202D4980310B
:100380000860AA202B49C1F88C00552029498C31DE
:10039000086000BF27488830006800F04070B0F166
:1003A000407FF7D123202349A4310860AA202149A6
:1003B000C1F8AC0055201F49AC31086001201D492F
:1003C000A0310860AA201B49AC31086055201949AA
:1003D000C1F8AC0000BF1748A830006800F4806086
:1003E0000028F8D003201349A0310860AA20114941
:1003F000C1F8AC0055200F49AC31086000BF0D4872
:10040000A830006800F44070B0F5407FF7D10B4889
:100410000849C431086000200649C1F8C8010846EF
:10042000006820F4704040F480400860704700008D
:10043000A0C10F4000C00F4063000500DE87280404
:100440003F065B4F666D7D077F0F000000000000D8
:080450000000000000000000A4
:04000005000001698D
:00000001FF
